{
  "contractName": "BetGame",
  "abi": [
    {
      "inputs": [],
      "stateMutability": "payable",
      "type": "constructor",
      "payable": true
    },
    {
      "anonymous": false,
      "inputs": [
        {
          "indexed": false,
          "internalType": "string",
          "name": "message",
          "type": "string"
        },
        {
          "indexed": false,
          "internalType": "uint256",
          "name": "amount",
          "type": "uint256"
        }
      ],
      "name": "BalanceAddedEvent",
      "type": "event"
    },
    {
      "anonymous": false,
      "inputs": [
        {
          "indexed": false,
          "internalType": "string",
          "name": "message",
          "type": "string"
        }
      ],
      "name": "ClaimPrizeEvent",
      "type": "event"
    },
    {
      "anonymous": false,
      "inputs": [
        {
          "indexed": false,
          "internalType": "string",
          "name": "message",
          "type": "string"
        }
      ],
      "name": "LogNewProvableQueryEvent",
      "type": "event"
    },
    {
      "anonymous": false,
      "inputs": [
        {
          "indexed": false,
          "internalType": "address",
          "name": "playerAddress",
          "type": "address"
        },
        {
          "indexed": false,
          "internalType": "bytes32",
          "name": "queryId",
          "type": "bytes32"
        },
        {
          "indexed": false,
          "internalType": "bool",
          "name": "win",
          "type": "bool"
        }
      ],
      "name": "MakeBetFinishEvent",
      "type": "event"
    },
    {
      "anonymous": false,
      "inputs": [
        {
          "indexed": false,
          "internalType": "address",
          "name": "playerAddress",
          "type": "address"
        },
        {
          "indexed": false,
          "internalType": "bytes32",
          "name": "queryId",
          "type": "bytes32"
        }
      ],
      "name": "MakeBetStartedEvent",
      "type": "event"
    },
    {
      "anonymous": false,
      "inputs": [
        {
          "indexed": false,
          "internalType": "string",
          "name": "message",
          "type": "string"
        }
      ],
      "name": "WithdrawAllEvent",
      "type": "event"
    },
    {
      "stateMutability": "payable",
      "type": "fallback",
      "payable": true
    },
    {
      "inputs": [],
      "name": "getGameBalance",
      "outputs": [
        {
          "internalType": "uint256",
          "name": "balance",
          "type": "uint256"
        }
      ],
      "stateMutability": "view",
      "type": "function",
      "constant": true
    },
    {
      "inputs": [],
      "name": "getContractBalance",
      "outputs": [
        {
          "internalType": "uint256",
          "name": "balance",
          "type": "uint256"
        }
      ],
      "stateMutability": "view",
      "type": "function",
      "constant": true
    },
    {
      "inputs": [
        {
          "internalType": "address",
          "name": "playerAddress",
          "type": "address"
        }
      ],
      "name": "getPlayerBalance",
      "outputs": [
        {
          "internalType": "uint256",
          "name": "balance",
          "type": "uint256"
        }
      ],
      "stateMutability": "view",
      "type": "function",
      "constant": true
    },
    {
      "inputs": [
        {
          "internalType": "enum BetGame.COIN_STATE",
          "name": "coinState",
          "type": "uint8"
        }
      ],
      "name": "makeBet",
      "outputs": [],
      "stateMutability": "payable",
      "type": "function",
      "payable": true
    },
    {
      "inputs": [],
      "name": "requestRandomNumber",
      "outputs": [
        {
          "internalType": "bytes32",
          "name": "",
          "type": "bytes32"
        }
      ],
      "stateMutability": "payable",
      "type": "function",
      "payable": true
    },
    {
      "inputs": [],
      "name": "withdrawAll",
      "outputs": [],
      "stateMutability": "nonpayable",
      "type": "function"
    },
    {
      "inputs": [],
      "name": "claimPrize",
      "outputs": [],
      "stateMutability": "nonpayable",
      "type": "function"
    },
    {
      "inputs": [
        {
          "internalType": "bytes32",
          "name": "_myid",
          "type": "bytes32"
        },
        {
          "internalType": "string",
          "name": "_result",
          "type": "string"
        }
      ],
      "name": "__callback",
      "outputs": [],
      "stateMutability": "nonpayable",
      "type": "function"
    },
    {
      "inputs": [
        {
          "internalType": "bytes32",
          "name": "queryId",
          "type": "bytes32"
        },
        {
          "internalType": "string",
          "name": "result",
          "type": "string"
        },
        {
          "internalType": "bytes",
          "name": "proof",
          "type": "bytes"
        }
      ],
      "name": "__callback",
      "outputs": [],
      "stateMutability": "nonpayable",
      "type": "function"
    },
    {
      "inputs": [
        {
          "internalType": "enum BetGame.COIN_STATE",
          "name": "coinState",
          "type": "uint8"
        },
        {
          "internalType": "uint256",
          "name": "betValue",
          "type": "uint256"
        }
      ],
      "name": "requestRandomNumberStub",
      "outputs": [
        {
          "internalType": "bytes32",
          "name": "",
          "type": "bytes32"
        }
      ],
      "stateMutability": "payable",
      "type": "function",
      "payable": true
    },
    {
      "inputs": [],
      "name": "destroy",
      "outputs": [],
      "stateMutability": "nonpayable",
      "type": "function"
    }
  ],
  "bytecode": "0x60a060405260006006553373ffffffffffffffffffffffffffffffffffffffff1660808173ffffffffffffffffffffffffffffffffffffffff1660601b81525050670de0b6b3a7640000803410158160405160200180807f4d696e20636f737420666f72206f7065726174696f6e20697320000000000000815250601a01828152602001807f20776569000000000000000000000000000000000000000000000000000000008152506004019150506040516020818303038152906040529062000167576040517f08c379a00000000000000000000000000000000000000000000000000000000081526004018080602001828103825283818151815260200191508051906020019080838360005b838110156200012b5780820151818401526020810190506200010e565b50505050905090810190601f168015620001595780820380516001836020036101000a031916815260200191505b509250505060405180910390fd5b50670de0b6b3a76400006007819055506007546008819055507f70762ed276796218e8f44f673dcdf9b04242080e0477437b584b8bb4b7e8262647604051808060200183815260200182810382526023815260200180620043e1602391396040019250505060405180910390a15060805160601c6141e9620001f86000398061122852806112ed52506141e96000f3fe6080604052600436106100a05760003560e01c806370740ac91161006457806370740ac91461041957806383197ef014610430578063853828b6146104475780638678a7b21461045e578063c574d1561461047c578063e2734c93146104a7576100a1565b8063043336bf1461013357806327dc297e1461016457806338bbfa501461023657806342ad5ec61461039f5780636f9fb98a146103ee576100a1565b5b34600760008282540192505081905550346008600082825401925050819055507f70762ed276796218e8f44f673dcdf9b04242080e0477437b584b8bb4b7e826264760405180806020018381526020018281038252601a8152602001807f42616c616e6365206164646564207669612066616c6c6261636b0000000000008152506020019250505060405180910390a1005b6101626004803603602081101561014957600080fd5b81019080803560ff16906020019092919050505061050c565b005b34801561017057600080fd5b506102346004803603604081101561018757600080fd5b8101908080359060200190929190803590602001906401000000008111156101ae57600080fd5b8201836020820111156101c057600080fd5b803590602001918460018302840111640100000000831117156101e257600080fd5b91908080601f016020809104026020016040519081016040528093929190818152602001838380828437600081840152601f19601f820116905080830192505050505050509192919290505050610b02565b005b34801561024257600080fd5b5061039d6004803603606081101561025957600080fd5b81019080803590602001909291908035906020019064010000000081111561028057600080fd5b82018360208201111561029257600080fd5b803590602001918460018302840111640100000000831117156102b457600080fd5b91908080601f016020809104026020016040519081016040528093929190818152602001838380828437600081840152601f19601f8201169050808301925050505050505091929192908035906020019064010000000081111561031757600080fd5b82018360208201111561032957600080fd5b8035906020019184600183028401116401000000008311171561034b57600080fd5b91908080601f016020809104026020016040519081016040528093929190818152602001838380828437600081840152601f19601f820116905080830192505050505050509192919290505050610b5c565b005b6103d8600480360360408110156103b557600080fd5b81019080803560ff16906020019092919080359060200190929190505050610dfe565b6040518082815260200191505060405180910390f35b3480156103fa57600080fd5b5061040361100c565b6040518082815260200191505060405180910390f35b34801561042557600080fd5b5061042e611014565b005b34801561043c57600080fd5b50610445611226565b005b34801561045357600080fd5b5061045c6112eb565b005b6104666117c8565b6040518082815260200191505060405180910390f35b34801561048857600080fd5b50610491611858565b6040518082815260200191505060405180910390f35b3480156104b357600080fd5b506104f6600480360360208110156104ca57600080fd5b81019080803573ffffffffffffffffffffffffffffffffffffffff169060200190929190505050611862565b6040518082815260200191505060405180910390f35b67016345785d8a0000803410158160405160200180807f4d696e20636f737420666f72206f7065726174696f6e20697320000000000000815250601a01828152602001807f20776569000000000000000000000000000000000000000000000000000000008152506004019150506040516020818303038152906040529061062f576040517f08c379a00000000000000000000000000000000000000000000000000000000081526004018080602001828103825283818151815260200191508051906020019080838360005b838110156105f45780820151818401526020810190506105d9565b50505050905090810190601f1680156106215780820380516001836020036101000a031916815260200191505b509250505060405180910390fd5b506040518060400160405280600781526020017f6d616b65426574000000000000000000000000000000000000000000000000008152506000816040518082805190602001908083835b6020831061069c5780518252602082019150602081019050602083039250610679565b6001836020036101000a038019825116818451168082178552505050505050905001915050908152602001604051809103902060009054906101000a900460ff1615610733576040517f08c379a00000000000000000000000000000000000000000000000000000000081526004018080602001828103825260248152602001806140b26024913960400191505060405180910390fd5b60016000826040518082805190602001908083835b6020831061076b5780518252602082019150602081019050602083039250610748565b6001836020036101000a038019825116818451168082178552505050505050905001915050908152602001604051809103902060006101000a81548160ff02191690831515021790555060085434600047905081831015610834576040517f08c379a000000000000000000000000000000000000000000000000000000000815260040180806020018281038252601f8152602001807f4e6f7420656e6f7567682067616d652062616c616e636520746f20706c61790081525060200191505060405180910390fd5b8281101561088d576040517f08c379a00000000000000000000000000000000000000000000000000000000081526004018080602001828103825260268152602001806141296026913960400191505060405180910390fd5b600660008154809291906001019190505550346008600082825403925050819055506108b7613f5c565b60405180608001604052803373ffffffffffffffffffffffffffffffffffffffff1681526020018860018111156108ea57fe5b815260200134815260200160011515815250905060006109086117c8565b905081600b600083815260200190815260200160002060008201518160000160006101000a81548173ffffffffffffffffffffffffffffffffffffffff021916908373ffffffffffffffffffffffffffffffffffffffff16021790555060208201518160000160146101000a81548160ff0219169083600181111561098957fe5b02179055506040820151816001015560608201518160020160006101000a81548160ff0219169083151502179055509050506009339080600181540180825580915050600190039060005260206000200160009091909190916101000a81548173ffffffffffffffffffffffffffffffffffffffff021916908373ffffffffffffffffffffffffffffffffffffffff1602179055507f3f981a9b4d011513273b3d86e654e32a9a2e32ef0e857240f24e0ae3851d510d826000015182604051808373ffffffffffffffffffffffffffffffffffffffff1681526020018281526020019250505060405180910390a15050505050600080826040518082805190602001908083835b60208310610ab35780518252602082019150602081019050602083039250610a90565b6001836020036101000a038019825116818451168082178552505050505050905001915050908152602001604051809103902060006101000a81548160ff021916908315150217905550505050565b610b588282600067ffffffffffffffff81118015610b1f57600080fd5b506040519080825280601f01601f191660200182016040528015610b525781602001600182028036833780820191505090505b50610b5c565b5050565b6040518060400160405280600a81526020017f5f5f63616c6c6261636b000000000000000000000000000000000000000000008152506000816040518082805190602001908083835b60208310610bc85780518252602082019150602081019050602083039250610ba5565b6001836020036101000a038019825116818451168082178552505050505050905001915050908152602001604051809103902060009054906101000a900460ff1615610c5f576040517f08c379a00000000000000000000000000000000000000000000000000000000081526004018080602001828103825260248152602001806140b26024913960400191505060405180910390fd5b60016000826040518082805190602001908083835b60208310610c975780518252602082019150602081019050602083039250610c74565b6001836020036101000a038019825116818451168082178552505050505050905001915050908152602001604051809103902060006101000a81548160ff021916908315150217905550610ce96118ab565b73ffffffffffffffffffffffffffffffffffffffff163373ffffffffffffffffffffffffffffffffffffffff1614610d6c576040517f08c379a000000000000000000000000000000000000000000000000000000000815260040180806020018281038252602f815260200180614185602f913960400191505060405180910390fd5b610d77848484611bcd565b600080826040518082805190602001908083835b60208310610dae5780518252602082019150602081019050602083039250610d8b565b6001836020036101000a038019825116818451168082178552505050505050905001915050908152602001604051809103902060006101000a81548160ff02191690831515021790555050505050565b60008033604051602001808273ffffffffffffffffffffffffffffffffffffffff1660601b8152601401915050604051602081830303815290604052805190602001209050610e4b613f5c565b60405180608001604052803373ffffffffffffffffffffffffffffffffffffffff168152602001866001811115610e7e57fe5b815260200185815260200160011515815250905080600b600084815260200190815260200160002060008201518160000160006101000a81548173ffffffffffffffffffffffffffffffffffffffff021916908373ffffffffffffffffffffffffffffffffffffffff16021790555060208201518160000160146101000a81548160ff02191690836001811115610f1157fe5b02179055506040820151816001015560608201518160020160006101000a81548160ff021916908315150217905550905050600060019050606081604051602001808281526020019150506040516020818303038152906040529050610f9784426040516020018082815260200191505060405160208183030381529060405283611bcd565b7ff53026743e4e0b841e89776dea61520f1eefe1e382d150b4a628fbb0c3d9b81260405180806020018281038252601d8152602001807f52616e646f6d206e756d62657220726571756573742073656e742e2e2e00000081525060200191505060405180910390a18394505050505092915050565b600047905090565b6040518060400160405280600a81526020017f636c61696d5072697a65000000000000000000000000000000000000000000008152506000816040518082805190602001908083835b60208310611080578051825260208201915060208101905060208303925061105d565b6001836020036101000a038019825116818451168082178552505050505050905001915050908152602001604051809103902060009054906101000a900460ff1615611117576040517f08c379a00000000000000000000000000000000000000000000000000000000081526004018080602001828103825260248152602001806140b26024913960400191505060405180910390fd5b60016000826040518082805190602001908083835b6020831061114f578051825260208201915060208101905060208303925061112c565b6001836020036101000a038019825116818451168082178552505050505050905001915050908152602001604051809103902060006101000a81548160ff0219169083151502179055506111a233612112565b600080826040518082805190602001908083835b602083106111d957805182526020820191506020810190506020830392506111b6565b6001836020036101000a038019825116818451168082178552505050505050905001915050908152602001604051809103902060006101000a81548160ff02191690831515021790555050565b7f000000000000000000000000000000000000000000000000000000000000000073ffffffffffffffffffffffffffffffffffffffff163373ffffffffffffffffffffffffffffffffffffffff16146112ca576040517f08c379a00000000000000000000000000000000000000000000000000000000081526004018080602001828103825260228152602001806141076022913960400191505060405180910390fd5b6112d26112eb565b3373ffffffffffffffffffffffffffffffffffffffff16ff5b7f000000000000000000000000000000000000000000000000000000000000000073ffffffffffffffffffffffffffffffffffffffff163373ffffffffffffffffffffffffffffffffffffffff161461138f576040517f08c379a00000000000000000000000000000000000000000000000000000000081526004018080602001828103825260228152602001806141076022913960400191505060405180910390fd5b6040518060400160405280600b81526020017f7769746864726177416c6c0000000000000000000000000000000000000000008152506000816040518082805190602001908083835b602083106113fb57805182526020820191506020810190506020830392506113d8565b6001836020036101000a038019825116818451168082178552505050505050905001915050908152602001604051809103902060009054906101000a900460ff1615611492576040517f08c379a00000000000000000000000000000000000000000000000000000000081526004018080602001828103825260248152602001806140b26024913960400191505060405180910390fd5b60016000826040518082805190602001908083835b602083106114ca57805182526020820191506020810190506020830392506114a7565b6001836020036101000a038019825116818451168082178552505050505050905001915050908152602001604051809103902060006101000a81548160ff0219169083151502179055506000471161152157611744565b60004711801561153357506000600654145b611588576040517f08c379a000000000000000000000000000000000000000000000000000000000815260040180806020018281038252602c815260200180614086602c913960400191505060405180910390fd5b600060075411156115ed573373ffffffffffffffffffffffffffffffffffffffff166108fc6007549081150290604051600060405180830381858888f193505050501580156115db573d6000803e3d6000fd5b50600060078190555060006008819055505b47600754146116db5760005b6009805490508110156116d9576000600a60006009848154811061161957fe5b9060005260206000200160009054906101000a900473ffffffffffffffffffffffffffffffffffffffff1673ffffffffffffffffffffffffffffffffffffffff1673ffffffffffffffffffffffffffffffffffffffff16815260200190815260200160002054905060008111156116cb576116ca6009838154811061169a57fe5b9060005260206000200160009054906101000a900473ffffffffffffffffffffffffffffffffffffffff16612112565b5b5080806001019150506115f9565b505b7fa2c9d70c4639b67df24ae057de14b39e84f485f8946ac59b0e32bb11aaa5d0176040518080602001828103825260168152602001807f5375636365737366756c6c7920636f6d706c657465640000000000000000000081525060200191505060405180910390a15b600080826040518082805190602001908083835b6020831061177b5780518252602082019150602081019050602083039250611758565b6001836020036101000a038019825116818451168082178552505050505050905001915050908152602001604051809103902060006101000a81548160ff02191690831515021790555050565b60008060009050600062030d40905060006117e58360018461231d565b90507ff53026743e4e0b841e89776dea61520f1eefe1e382d150b4a628fbb0c3d9b81260405180806020018281038252601d8152602001807f52616e646f6d206e756d62657220726571756573742073656e742e2e2e00000081525060200191505060405180910390a180935050505090565b6000600754905090565b6000600a60008373ffffffffffffffffffffffffffffffffffffffff1673ffffffffffffffffffffffffffffffffffffffff168152602001908152602001600020549050919050565b60008073ffffffffffffffffffffffffffffffffffffffff16600260009054906101000a900473ffffffffffffffffffffffffffffffffffffffff1673ffffffffffffffffffffffffffffffffffffffff16148061193357506000611931600260009054906101000a900473ffffffffffffffffffffffffffffffffffffffff16612942565b145b1561194457611942600061294d565b505b600260009054906101000a900473ffffffffffffffffffffffffffffffffffffffff1673ffffffffffffffffffffffffffffffffffffffff166338cc48316040518163ffffffff1660e01b8152600401602060405180830381600087803b1580156119ae57600080fd5b505af11580156119c2573d6000803e3d6000fd5b505050506040513d60208110156119d857600080fd5b810190808051906020019092919050505073ffffffffffffffffffffffffffffffffffffffff16600160009054906101000a900473ffffffffffffffffffffffffffffffffffffffff1673ffffffffffffffffffffffffffffffffffffffff1614611b2357600260009054906101000a900473ffffffffffffffffffffffffffffffffffffffff1673ffffffffffffffffffffffffffffffffffffffff166338cc48316040518163ffffffff1660e01b8152600401602060405180830381600087803b158015611aa757600080fd5b505af1158015611abb573d6000803e3d6000fd5b505050506040513d6020811015611ad157600080fd5b8101908080519060200190929190505050600160006101000a81548173ffffffffffffffffffffffffffffffffffffffff021916908373ffffffffffffffffffffffffffffffffffffffff1602179055505b600160009054906101000a900473ffffffffffffffffffffffffffffffffffffffff1673ffffffffffffffffffffffffffffffffffffffff1663c281d19e6040518163ffffffff1660e01b8152600401602060405180830381600087803b158015611b8d57600080fd5b505af1158015611ba1573d6000803e3d6000fd5b505050506040513d6020811015611bb757600080fd5b8101908080519060200190929190505050905090565b6040518060400160405280600881526020017f63616c6c6261636b0000000000000000000000000000000000000000000000008152506000816040518082805190602001908083835b60208310611c395780518252602082019150602081019050602083039250611c16565b6001836020036101000a038019825116818451168082178552505050505050905001915050908152602001604051809103902060009054906101000a900460ff1615611cd0576040517f08c379a00000000000000000000000000000000000000000000000000000000081526004018080602001828103825260248152602001806140b26024913960400191505060405180910390fd5b60016000826040518082805190602001908083835b60208310611d085780518252602082019150602081019050602083039250611ce5565b6001836020036101000a038019825116818451168082178552505050505050905001915050908152602001604051809103902060006101000a81548160ff021916908315150217905550611d5a613f5c565b600b60008681526020019081526020016000206040518060800160405290816000820160009054906101000a900473ffffffffffffffffffffffffffffffffffffffff1673ffffffffffffffffffffffffffffffffffffffff1673ffffffffffffffffffffffffffffffffffffffff1681526020016000820160149054906101000a900460ff166001811115611dec57fe5b6001811115611df757fe5b8152602001600182015481526020016002820160009054906101000a900460ff16151515158152505090508060600151611e7c576040517f08c379a000000000000000000000000000000000000000000000000000000000815260040180806020018281038252603681526020018061414f6036913960400191505060405180910390fd5b6000600b600087815260200190815260200160002060020160006101000a81548160ff021916908315150217905550600660008154809291906001900391905055506000846040516020018082805190602001908083835b60208310611ef75780518252602082019150602081019050602083039250611ed4565b6001836020036101000a0380198251168184511680821785525050505050509050019150506040516020818303038152906040528051906020012060001c905060008060028381611f4457fe5b0614611f51576001611f54565b60005b9050600083602001516001811115611f6857fe5b826001811115611f7457fe5b14905080611f83576000611f8c565b60028460400151025b600a6000866000015173ffffffffffffffffffffffffffffffffffffffff1673ffffffffffffffffffffffffffffffffffffffff1681526020019081526020016000206000828254019250508190555080611feb578360400151611fee565b60005b6008600082825401925050819055508061200c578360400151612015565b83604001516000035b6007600082825401925050819055507f481a1b02d6be8bfb5f99fd3103ed14daed6a783f524ae94235639edbdd42996784600001518983604051808473ffffffffffffffffffffffffffffffffffffffff1681526020018381526020018215158152602001935050505060405180910390a150505050600080826040518082805190602001908083835b602083106120c2578051825260208201915060208101905060208303925061209f565b6001836020036101000a038019825116818451168082178552505050505050905001915050908152602001604051809103902060006101000a81548160ff02191690831515021790555050505050565b6000600a60008373ffffffffffffffffffffffffffffffffffffffff1673ffffffffffffffffffffffffffffffffffffffff1681526020019081526020016000205490506000600a60008473ffffffffffffffffffffffffffffffffffffffff1673ffffffffffffffffffffffffffffffffffffffff1681526020019081526020016000208190555060008111612211576040517f08c379a00000000000000000000000000000000000000000000000000000000081526004018080602001828103825260178152602001807f506c6179657220686173207a65726f2062616c616e636500000000000000000081525060200191505060405180910390fd5b8047101561226a576040517f08c379a00000000000000000000000000000000000000000000000000000000081526004018080602001828103825260318152602001806140d66031913960400191505060405180910390fd5b8173ffffffffffffffffffffffffffffffffffffffff166108fc829081150290604051600060405180830381858888f193505050501580156122b0573d6000803e3d6000fd5b507f4456dd7ad062a6a00f65ac1a5ba14408571007c1bbecf8e3eb2f923946b5eaed6040518080602001828103825260078152602001807f537563636573730000000000000000000000000000000000000000000000000081525060200191505060405180910390a15050565b6000808311801561232f575060208311155b61233857600080fd5b600a840293506060600167ffffffffffffffff8111801561235857600080fd5b506040519080825280601f01601f19166020018201604052801561238b5781602001600182028036833780820191505090505b5090508360f81b8160008151811061239f57fe5b60200101907effffffffffffffffffffffffffffffffffffffffffffffffffffffffffffff1916908160001a9053506060602067ffffffffffffffff811180156123e857600080fd5b506040519080825280601f01601f19166020018201604052801561241b5781602001600182028036833780820191505090505b5090506060602067ffffffffffffffff8111801561243857600080fd5b506040519080825280601f01601f19166020018201604052801561246b5781602001600182028036833780820191505090505b509050600061247861295e565b9050602083524241186001430340186020840152602082528060208301526060602067ffffffffffffffff811180156124b057600080fd5b506040519080825280601f01601f1916602001820160405280156124e35781602001600182028036833780820191505090505b5090508860208201526060600867ffffffffffffffff8111801561250657600080fd5b506040519080825280601f01601f1916602001820160405280156125395781602001600182028036833780820191505090505b50905061254c8260186008846000612c7e565b50612555613fa7565b604051806080016040528087815260200188815260200186815260200184815250905060006125ba6040518060400160405280600681526020017f72616e646f6d0000000000000000000000000000000000000000000000000000815250838c612cdd565b90506060600867ffffffffffffffff811180156125d657600080fd5b506040519080825280601f01601f1916602001820160405280156126095781602001600182028036833780820191505090505b50905060208401517f0100000000000000000000000000000000000000000000000000000000000000810460278301537e01000000000000000000000000000000000000000000000000000000000000810460268301537d010000000000000000000000000000000000000000000000000000000000810460258301537c0100000000000000000000000000000000000000000000000000000000810460248301537b01000000000000000000000000000000000000000000000000000000810460238301537a01000000000000000000000000000000000000000000000000000081046022830153790100000000000000000000000000000000000000000000000000810460218301537801000000000000000000000000000000000000000000000000810460208301535061292f82828560016004811061274857fe5b602002015160028760006004811061275c57fe5b60200201516040518082805190602001908083835b602083106127945780518252602082019150602081019050602083039250612771565b6001836020036101000a038019825116818451168082178552505050505050905001915050602060405180830381855afa1580156127d6573d6000803e3d6000fd5b5050506040513d60208110156127eb57600080fd5b81019080805190602001909291905050508760026004811061280957fe5b60200201516040516020018085805190602001908083835b602083106128445780518252602082019150602081019050602083039250612821565b6001836020036101000a03801982511681845116808217855250505050505090500184805190602001908083835b602083106128955780518252602082019150602081019050602083039250612872565b6001836020036101000a03801982511681845116808217855250505050505090500183815260200182805190602001908083835b602083106128ec57805182526020820191506020810190506020830392506128c9565b6001836020036101000a03801982511681845116808217855250505050505090500194505050505060405160208183030381529060405280519060200120613063565b8199505050505050505050509392505050565b6000813b9050919050565b600061295761307f565b9050919050565b60008073ffffffffffffffffffffffffffffffffffffffff16600260009054906101000a900473ffffffffffffffffffffffffffffffffffffffff1673ffffffffffffffffffffffffffffffffffffffff1614806129e6575060006129e4600260009054906101000a900473ffffffffffffffffffffffffffffffffffffffff16612942565b145b156129f7576129f5600061294d565b505b600260009054906101000a900473ffffffffffffffffffffffffffffffffffffffff1673ffffffffffffffffffffffffffffffffffffffff166338cc48316040518163ffffffff1660e01b8152600401602060405180830381600087803b158015612a6157600080fd5b505af1158015612a75573d6000803e3d6000fd5b505050506040513d6020811015612a8b57600080fd5b810190808051906020019092919050505073ffffffffffffffffffffffffffffffffffffffff16600160009054906101000a900473ffffffffffffffffffffffffffffffffffffffff1673ffffffffffffffffffffffffffffffffffffffff1614612bd657600260009054906101000a900473ffffffffffffffffffffffffffffffffffffffff1673ffffffffffffffffffffffffffffffffffffffff166338cc48316040518163ffffffff1660e01b8152600401602060405180830381600087803b158015612b5a57600080fd5b505af1158015612b6e573d6000803e3d6000fd5b505050506040513d6020811015612b8457600080fd5b8101908080519060200190929190505050600160006101000a81548173ffffffffffffffffffffffffffffffffffffffff021916908373ffffffffffffffffffffffffffffffffffffffff1602179055505b600160009054906101000a900473ffffffffffffffffffffffffffffffffffffffff1673ffffffffffffffffffffffffffffffffffffffff1663abaa5f3e6040518163ffffffff1660e01b815260040160206040518083038186803b158015612c3e57600080fd5b505afa158015612c52573d6000803e3d6000fd5b505050506040513d6020811015612c6857600080fd5b8101908080519060200190929190505050905090565b6060600082850190508084511015612c9557600080fd5b600086602001905060008460200190505b868860200101821015612cce5781890151808288015250602082019150602081019050612ca6565b85935050505095945050505050565b60008073ffffffffffffffffffffffffffffffffffffffff16600260009054906101000a900473ffffffffffffffffffffffffffffffffffffffff1673ffffffffffffffffffffffffffffffffffffffff161480612d6557506000612d63600260009054906101000a900473ffffffffffffffffffffffffffffffffffffffff16612942565b145b15612d7657612d74600061294d565b505b600260009054906101000a900473ffffffffffffffffffffffffffffffffffffffff1673ffffffffffffffffffffffffffffffffffffffff166338cc48316040518163ffffffff1660e01b8152600401602060405180830381600087803b158015612de057600080fd5b505af1158015612df4573d6000803e3d6000fd5b505050506040513d6020811015612e0a57600080fd5b810190808051906020019092919050505073ffffffffffffffffffffffffffffffffffffffff16600160009054906101000a900473ffffffffffffffffffffffffffffffffffffffff1673ffffffffffffffffffffffffffffffffffffffff1614612f5557600260009054906101000a900473ffffffffffffffffffffffffffffffffffffffff1673ffffffffffffffffffffffffffffffffffffffff166338cc48316040518163ffffffff1660e01b8152600401602060405180830381600087803b158015612ed957600080fd5b505af1158015612eed573d6000803e3d6000fd5b505050506040513d6020811015612f0357600080fd5b8101908080519060200190929190505050600160006101000a81548173ffffffffffffffffffffffffffffffffffffffff021916908373ffffffffffffffffffffffffffffffffffffffff1602179055505b6060600467ffffffffffffffff81118015612f6f57600080fd5b50604051908082528060200260200182016040528015612fa357816020015b6060815260200190600190039081612f8e5790505b50905083600060048110612fb357fe5b602002015181600081518110612fc557fe5b602002602001018190525083600160048110612fdd57fe5b602002015181600181518110612fef57fe5b60200260200101819052508360026004811061300757fe5b60200201518160028151811061301957fe5b60200260200101819052508360036004811061303157fe5b60200201518160038151811061304357fe5b60200260200101819052506130598582856135d6565b9150509392505050565b8060046000848152602001908152602001600020819055505050565b60008061309f731d3b2638a7cc9f2cb3d298a3da7a90b67e5506ed612942565b111561314157731d3b2638a7cc9f2cb3d298a3da7a90b67e5506ed600260006101000a81548173ffffffffffffffffffffffffffffffffffffffff021916908373ffffffffffffffffffffffffffffffffffffffff1602179055506131386040518060400160405280600b81526020017f6574685f6d61696e6e6574000000000000000000000000000000000000000000815250613b3c565b600190506135d3565b600061316073c03a2615d5efaf5f49f60b7bb6583eaec212fdf1612942565b11156132025773c03a2615d5efaf5f49f60b7bb6583eaec212fdf1600260006101000a81548173ffffffffffffffffffffffffffffffffffffffff021916908373ffffffffffffffffffffffffffffffffffffffff1602179055506131f96040518060400160405280600c81526020017f6574685f726f707374656e330000000000000000000000000000000000000000815250613b3c565b600190506135d3565b600061322173b7a07bcf2ba2f2703b24c0691b5278999c59ac7e612942565b11156132c35773b7a07bcf2ba2f2703b24c0691b5278999c59ac7e600260006101000a81548173ffffffffffffffffffffffffffffffffffffffff021916908373ffffffffffffffffffffffffffffffffffffffff1602179055506132ba6040518060400160405280600981526020017f6574685f6b6f76616e0000000000000000000000000000000000000000000000815250613b3c565b600190506135d3565b60006132e273146500cfd35b22e4a392fe0adc06de1a1368ed48612942565b11156133845773146500cfd35b22e4a392fe0adc06de1a1368ed48600260006101000a81548173ffffffffffffffffffffffffffffffffffffffff021916908373ffffffffffffffffffffffffffffffffffffffff16021790555061337b6040518060400160405280600b81526020017f6574685f72696e6b656279000000000000000000000000000000000000000000815250613b3c565b600190506135d3565b60006133a373a2998efd205fb9d4b4963afb70778d6354ad3a41612942565b11156134455773a2998efd205fb9d4b4963afb70778d6354ad3a41600260006101000a81548173ffffffffffffffffffffffffffffffffffffffff021916908373ffffffffffffffffffffffffffffffffffffffff16021790555061343c6040518060400160405280600a81526020017f6574685f676f65726c6900000000000000000000000000000000000000000000815250613b3c565b600190506135d3565b6000613464736f485c8bf6fc43ea212e93bbf8ce046c7f1cb475612942565b11156134c857736f485c8bf6fc43ea212e93bbf8ce046c7f1cb475600260006101000a81548173ffffffffffffffffffffffffffffffffffffffff021916908373ffffffffffffffffffffffffffffffffffffffff160217905550600190506135d3565b60006134e77320e12a1f859b3feae5fb2a0a32c18f5a65555bbf612942565b111561354b577320e12a1f859b3feae5fb2a0a32c18f5a65555bbf600260006101000a81548173ffffffffffffffffffffffffffffffffffffffff021916908373ffffffffffffffffffffffffffffffffffffffff160217905550600190506135d3565b600061356a7351efaf4c8b3c9afbd5ab9f4bbc82784ab6ef8faa612942565b11156135ce577351efaf4c8b3c9afbd5ab9f4bbc82784ab6ef8faa600260006101000a81548173ffffffffffffffffffffffffffffffffffffffff021916908373ffffffffffffffffffffffffffffffffffffffff160217905550600190506135d3565b600090505b90565b60008073ffffffffffffffffffffffffffffffffffffffff16600260009054906101000a900473ffffffffffffffffffffffffffffffffffffffff1673ffffffffffffffffffffffffffffffffffffffff16148061365e5750600061365c600260009054906101000a900473ffffffffffffffffffffffffffffffffffffffff16612942565b145b1561366f5761366d600061294d565b505b600260009054906101000a900473ffffffffffffffffffffffffffffffffffffffff1673ffffffffffffffffffffffffffffffffffffffff166338cc48316040518163ffffffff1660e01b8152600401602060405180830381600087803b1580156136d957600080fd5b505af11580156136ed573d6000803e3d6000fd5b505050506040513d602081101561370357600080fd5b810190808051906020019092919050505073ffffffffffffffffffffffffffffffffffffffff16600160009054906101000a900473ffffffffffffffffffffffffffffffffffffffff1673ffffffffffffffffffffffffffffffffffffffff161461384e57600260009054906101000a900473ffffffffffffffffffffffffffffffffffffffff1673ffffffffffffffffffffffffffffffffffffffff166338cc48316040518163ffffffff1660e01b8152600401602060405180830381600087803b1580156137d257600080fd5b505af11580156137e6573d6000803e3d6000fd5b505050506040513d60208110156137fc57600080fd5b8101908080519060200190929190505050600160006101000a81548173ffffffffffffffffffffffffffffffffffffffff021916908373ffffffffffffffffffffffffffffffffffffffff1602179055505b6000600160009054906101000a900473ffffffffffffffffffffffffffffffffffffffff1673ffffffffffffffffffffffffffffffffffffffff16632ef3accc86856040518363ffffffff1660e01b81526004018080602001838152602001828103825284818151815260200191508051906020019080838360005b838110156138e55780820151818401526020810190506138ca565b50505050905090810190601f1680156139125780820380516001836020036101000a031916815260200191505b509350505050602060405180830381600087803b15801561393257600080fd5b505af1158015613946573d6000803e3d6000fd5b505050506040513d602081101561395c57600080fd5b81019080805190602001909291905050509050823a02670de0b6b3a76400000181111561398f576000801b915050613b35565b606061399a85613b56565b9050600160009054906101000a900473ffffffffffffffffffffffffffffffffffffffff1673ffffffffffffffffffffffffffffffffffffffff1663c55c1cb68360008985896040518663ffffffff1660e01b8152600401808581526020018060200180602001848152602001838103835286818151815260200191508051906020019080838360005b83811015613a3f578082015181840152602081019050613a24565b50505050905090810190601f168015613a6c5780820380516001836020036101000a031916815260200191505b50838103825285818151815260200191508051906020019080838360005b83811015613aa5578082015181840152602081019050613a8a565b50505050905090810190601f168015613ad25780820380516001836020036101000a031916815260200191505b5096505050505050506020604051808303818588803b158015613af457600080fd5b505af1158015613b08573d6000803e3d6000fd5b50505050506040513d6020811015613b1f57600080fd5b8101908080519060200190929190505050925050505b9392505050565b8060039080519060200190613b52929190613fce565b5050565b6060613b60613bd3565b613b6861404e565b613b7481610400613bdf565b613b7d81613c29565b60005b8351811015613bbc57613baf848281518110613b9857fe5b602002602001015183613c3790919063ffffffff16565b8080600101915050613b80565b50613bc681613c5c565b8060000151915050919050565b60405180590338823950565b6000819050600060208281613bf057fe5b0614613c095760208181613c0057fe5b06602003810190505b808360200181815250506040518084526000815281810160405250505050565b613c34816004613c6a565b50565b613c448260028351613c8b565b613c578183613dcb90919063ffffffff16565b505050565b613c67816007613c6a565b50565b613c87601f60058360ff16901b1783613e7690919063ffffffff16565b5050565b60178111613cb757613cb28160058460ff16901b60ff161784613e7690919063ffffffff16565b613dc6565b60ff8111613cf857613cdc601860058460ff16901b1784613e7690919063ffffffff16565b613cf281600185613eb69092919063ffffffff16565b50613dc5565b61ffff8111613d3a57613d1e601960058460ff16901b1784613e7690919063ffffffff16565b613d3481600285613eb69092919063ffffffff16565b50613dc4565b63ffffffff8111613d7e57613d62601a60058460ff16901b1784613e7690919063ffffffff16565b613d7881600485613eb69092919063ffffffff16565b50613dc3565b67ffffffffffffffff8111613dc257613daa601b60058460ff16901b1784613e7690919063ffffffff16565b613dc081600885613eb69092919063ffffffff16565b505b5b5b5b5b505050565b613dd361404e565b82602001518360000151518351011115613e0357613e02836002613dfc86602001518651613f1d565b02613f39565b5b60008060008451905085518051602081830101945086518101825260208701935050505b60208110613e4a5781518352602083019250602082019150602081039050613e27565b60006001826020036101000a039050801983511681855116818117865250508694505050505092915050565b81602001516001836000015151011115613e9c57613e9b826002846020015102613f39565b5b815180516020818301018381536001820183525050505050565b613ebe61404e565b836020015184600001515183011115613eec57613eeb846002613ee5876020015186613f1d565b02613f39565b5b60006001836101000a0390508451805184818301018684198251161781528582018352505050849150509392505050565b600081831115613f2f57829050613f33565b8190505b92915050565b606082600001519050613f4c8383613bdf565b613f568382613dcb565b50505050565b6040518060800160405280600073ffffffffffffffffffffffffffffffffffffffff16815260200160006001811115613f9157fe5b8152602001600081526020016000151581525090565b60405180608001604052806004905b6060815260200190600190039081613fb65790505090565b828054600181600116156101000203166002900490600052602060002090601f016020900481019282601f1061400f57805160ff191683800117855561403d565b8280016001018555821561403d579182015b8281111561403c578251825591602001919060010190614021565b5b50905061404a9190614068565b5090565b604051806040016040528060608152602001600081525090565b5b80821115614081576000816000905550600101614069565b509056fe43616e6e6f7420776974686472617720756e74696c20616c6c2062657473206172652070726f63657373656448617320616c726561647920656e74657265642074686973206d6574686f64206f6e6365436f6e747261637420686173206e6f7420656e6f7567682062616c616e636520746f207061792074686520706c617965724f776e6572206f6e6c792063616e20657865637574652074686973206d6574686f644e6f7420656e6f7567682062616c616e6365206f6e20636f6e747261637420746f20706c617942657420646f6573206e6f7420657869737420666f7220706c61796572206f722077617320616c72656164792070726f6365737365645f63616c6c6261636b2063616e2062652063616c6c65642066726f6d2070726f7661626c655f636241646472657373a26469706673582212202c35cd2db181509470951eaebfb43c2f0a47b1edfb1167e6a4e776395e32a80464736f6c634300060c003342616c616e636520696e697469616c697a65642076616920636f6e7374727563746f72",
  "immutableReferences": {
    "664": [
      {
        "length": 32,
        "start": 4648
      },
      {
        "length": 32,
        "start": 4845
      }
    ]
  },
  "source": "pragma solidity 0.6.12;\n\nimport \"./Ownable.sol\";\nimport \"./Payable.sol\";\nimport \"./ReentranceGuard.sol\";\nimport \"./provableAPI.sol\";\n\ncontract BetGame is Ownable, Payable, ReentranceGuard, usingProvable {\n\n  // min bet price\n  uint constant internal MIN_BET_PRICE = 100000000 gwei; // 1/10 of ether\n  // initial min balance required to create game\n  uint constant internal INITIAL_BALANCE = 1 ether;\n  // number of bytes returned from oracle that generates random number\n  uint256 constant private NUM_BYTES_REQUESTED = 1;\n  // current amount of active queries. contract cannot be destroyed if someone's bet still in progress\n  uint private activeQueries = 0;\n  // game balance after we know result of bet\n  uint private gameBalance;\n  // since bet process is two stage operation with oracle, we want to\n  // have guarantee that contract has enough money on balance\n  // we keep pessimistic balance as if player always wins\n  uint private estimatedGameBalance;\n  // enum representin two possible coin states\n  enum COIN_STATE {HEAD, TAIL}\n  // since we can't iterate through map keys and still required to distribute money accumulated by players\n  // array of all players with duplication\n  address payable[] private players;\n  // keeping balance per player\n  mapping(address => uint) private playerBalances;\n  // queryId/PlayerBet maping\n  mapping(bytes32 => PlayerBet) private playerBets;\n  // event indicating start of bet process\n  event MakeBetStartedEvent(address playerAddress, bytes32 queryId);\n  // event indicating end of bet process\n  event MakeBetFinishEvent(address playerAddress, bytes32 queryId, bool win);\n  // withdraw all money from contract event\n  event WithdrawAllEvent(string message);\n  // event indicating that query to oracle is sent\n  event LogNewProvableQueryEvent(string message);\n  // event indicating that money was sent to contract address\n  event BalanceAddedEvent(string message, uint amount);\n  // event indicating that player is trying to claim prize\n  event ClaimPrizeEvent(string message);\n  // this struc represents required information for one bet\n  struct PlayerBet {\n    address payable playerAddress;\n    COIN_STATE coinState;\n    uint betPrice;\n    bool exists;\n  }\n\n  // initializing balances in payable constructor\n  constructor() public payable costs(INITIAL_BALANCE) {\n    gameBalance = INITIAL_BALANCE;\n    estimatedGameBalance = gameBalance;\n    emit BalanceAddedEvent(\"Balance initialized vai constructor\", address(this).balance);\n  }\n\n  // returns current game balance\n  function getGameBalance() public view returns (uint balance) {\n    return gameBalance;\n  }\n\n  // returns current contract balance\n  function getContractBalance() public view returns (uint balance) {\n    return address(this).balance;\n  }\n\n  // returns player's balance\n  function getPlayerBalance(address playerAddress) public view returns(uint balance){\n    return playerBalances[playerAddress];\n  }\n\n  // payable function to make bet\n  function makeBet(COIN_STATE coinState) public payable costs(MIN_BET_PRICE) nonReentrant(\"makeBet\") hasEnoughBalance(estimatedGameBalance, msg.value) {\n    // increment amount of active queries\n    activeQueries++;\n    // adjust pessimistic game balance (as if player always wins)\n    estimatedGameBalance -= msg.value;\n    // create instance of player bet structure\n    PlayerBet memory playerBet = PlayerBet(msg.sender, coinState, msg.value, true);\n    // request oracle for random number\n    bytes32 queryId = requestRandomNumber();\n    // UNCOMMENT THIS LINE WHEN TESTING ONLY\n    // bytes32 queryId = requestRandomNumberStub(coinState, msg.value);\n    // store PlayerBet by query id\n    playerBets[queryId] = playerBet;\n    players.push(msg.sender);\n    // emit bet started event\n    emit MakeBetStartedEvent(playerBet.playerAddress, queryId);\n  }\n\n  // invoking oracle method to generate random number\n  function requestRandomNumber() payable public returns (bytes32){\n    // no delay\n    uint queryExecutionDelay = 0;\n    // gas for callback function\n    uint gasForCallback = 200000;\n    // invoke oracle method and get back query id for tracking when it comes to callback function\n    bytes32 queryId = provable_newRandomDSQuery(queryExecutionDelay, NUM_BYTES_REQUESTED, gasForCallback);\n    // emit query event\n    emit LogNewProvableQueryEvent(\"Random number request sent...\");\n    return queryId;\n  }\n\n  // withdraw all money from contract and distribute between owner and players\n  function withdrawAll() public isOwner() nonReentrant(\"withdrawAll\")  {\n    if (address(this).balance <= 0) {\n      return;\n    }\n    // can withdraw only if all bets are processed\n    require(address(this).balance > 0 && activeQueries == 0, \"Cannot withdraw until all bets are processed\");\n    if (gameBalance > 0) {\n      // transfer owner's part of contract balance\n      msg.sender.transfer(gameBalance);\n      // can reset gameBalance after transfer since method is nonReentrant\n      gameBalance = 0;\n      estimatedGameBalance = 0;\n\n    }\n    if (gameBalance != address(this).balance) {\n      // TODO: gas consuming operation since array might have duplicates\n      for (uint i=0; i<players.length; i++) {\n        uint playerBalance = playerBalances[players[i]];\n        if (playerBalance > 0) {\n          claimPrize(players[i]);\n        }\n      }\n    }\n    // emit withdraw all successful event\n    emit WithdrawAllEvent(\"Successfully completed\");\n  }\n\n  // method for players to claim their prize\n  function claimPrize() public nonReentrant(\"claimPrize\") {\n    // invoke private function with msg.sender as parameter\n    claimPrize(msg.sender);\n  }\n\n  // method for players to claim their prize\n  function claimPrize(address payable playerAddress) private {\n    // store player's balance in local variable\n    uint playerBalance = playerBalances[playerAddress];\n    // change players balance to 0\n    playerBalances[playerAddress] = 0;\n    // can claim if balance is greater than 0\n    require(playerBalance > 0, \"Player has zero balance\");\n    // can claim only if contract has enough balance to pay\n    require(address(this).balance >= playerBalance, \"Contract has not enough balance to pay the player\");\n    // transfer money from contract to player\n    playerAddress.transfer(playerBalance);\n    emit ClaimPrizeEvent(\"Success\");\n  }\n\n  // callback function for oracle\n  function __callback(bytes32 queryId, string memory result, bytes memory proof) public override nonReentrant(\"__callback\") {\n    require(msg.sender == provable_cbAddress(), \"_callback can be called from provable_cbAddress\");\n    callback(queryId, result, proof);\n  }\n\n  // internal callback function with all logic\n  function callback(bytes32 queryId, string memory result, bytes memory proof) private nonReentrant(\"callback\") {\n    // find PlayerBet by query id\n    PlayerBet memory playerBet = playerBets[queryId];\n    require(playerBet.exists, \"Bet does not exist for player or was already processed\");\n    // change exists to false so it won't be processed if there is second call with the same query id\n    playerBets[queryId].exists = false;\n    // decrease active queries\n    activeQueries--;\n    // get random number from result\n    uint256 randomNumber = uint256(keccak256(abi.encodePacked(result)));\n    // convert random number to random coin state\n    COIN_STATE randomState = randomNumber % 2 == 0 ? COIN_STATE.HEAD : COIN_STATE.TAIL;\n    // keep win/lose in local variable\n    bool win = randomState == playerBet.coinState;\n    // update player balance if he wins\n    playerBalances[playerBet.playerAddress] += win ? playerBet.betPrice * 2 : 0;\n    // update estimatedGameBalance if player loses\n    estimatedGameBalance += win ? 0 : playerBet.betPrice;\n    // update game balance\n    gameBalance += win ? -playerBet.betPrice : playerBet.betPrice;\n    // emit bet finish event with player adddress and game result\n    emit MakeBetFinishEvent(playerBet.playerAddress, queryId, win);\n  }\n\n  // function used for internal testing in Ganache\n  function requestRandomNumberStub(COIN_STATE coinState, uint betValue) payable public returns (bytes32){\n    bytes32 queryId = bytes32(keccak256(abi.encodePacked(msg.sender)));\n    // create instance of player bet structure\n    PlayerBet memory playerBet = PlayerBet(msg.sender, coinState, betValue, true);\n    // store PlayerBet by query id\n    playerBets[queryId] = playerBet;\n    // simulate callback invocation\n    uint256 proof = 1;\n    bytes memory proofBytes = abi.encodePacked(proof);\n    callback(queryId, string(abi.encodePacked(block.timestamp)), proofBytes);\n    // emit query event\n    emit LogNewProvableQueryEvent(\"Random number request sent...\");\n    return queryId;\n  }\n\n  // in case someone wants to recharge game balance\n  fallback() external payable {\n    gameBalance += msg.value;\n    estimatedGameBalance += msg.value;\n    emit BalanceAddedEvent(\"Balance added via fallback\", address(this).balance);\n  }\n\n  // destroy contract if balance is distributed successfully among all parties\n  function destroy() public isOwner {\n    // distribute payments to players and contract owner\n    withdrawAll();\n    // destroy contract\n    selfdestruct(msg.sender);\n  }\n\n}\n",
  "sourcePath": "/Users/ricoto86/projects/course/bet-game-oracle/contracts/BetGame.sol",
  "compiler": {
    "name": "solc",
    "version": "0.6.12+commit.27d51765.Emscripten.clang"
  },
  "schemaVersion": "3.3.2",
  "updatedAt": "2021-01-11T05:31:59.506Z",
  "networkType": "ethereum",
  "devdoc": {
    "kind": "dev",
    "methods": {
      "__callback(bytes32,string)": {
        "details": "The following `__callback` functions are just placeholders ideally      meant to be defined in child contract when proofs are used.      The function bodies simply silence compiler warnings."
      }
    },
    "version": 1
  },
  "userdoc": {
    "kind": "user",
    "methods": {},
    "version": 1
  }
}